{
  "_format": "hh-sol-artifact-1",
  "contractName": "VotingMachine",
  "sourceName": "contracts/VotingContract.sol",
  "abi": [
    {
      "inputs": [],
      "stateMutability": "nonpayable",
      "type": "constructor"
    },
    {
      "anonymous": false,
      "inputs": [
        {
          "indexed": true,
          "internalType": "uint256",
          "name": "candidateId",
          "type": "uint256"
        },
        {
          "indexed": false,
          "internalType": "string",
          "name": "age",
          "type": "string"
        },
        {
          "indexed": false,
          "internalType": "string",
          "name": "name",
          "type": "string"
        },
        {
          "indexed": false,
          "internalType": "string",
          "name": "image",
          "type": "string"
        },
        {
          "indexed": false,
          "internalType": "uint256",
          "name": "voteCount",
          "type": "uint256"
        },
        {
          "indexed": false,
          "internalType": "address",
          "name": "_address",
          "type": "address"
        },
        {
          "indexed": false,
          "internalType": "string",
          "name": "ipfs",
          "type": "string"
        }
      ],
      "name": "CandidateCreate",
      "type": "event"
    },
    {
      "anonymous": false,
      "inputs": [
        {
          "indexed": true,
          "internalType": "uint256",
          "name": "voter_voterId",
          "type": "uint256"
        },
        {
          "indexed": false,
          "internalType": "string",
          "name": "voter_name",
          "type": "string"
        },
        {
          "indexed": false,
          "internalType": "string",
          "name": "voter_image",
          "type": "string"
        },
        {
          "indexed": false,
          "internalType": "address",
          "name": "voter_address",
          "type": "address"
        },
        {
          "indexed": false,
          "internalType": "uint256",
          "name": "voter_allowed",
          "type": "uint256"
        },
        {
          "indexed": false,
          "internalType": "bool",
          "name": "voter_voted",
          "type": "bool"
        },
        {
          "indexed": false,
          "internalType": "uint256",
          "name": "voter_vote",
          "type": "uint256"
        },
        {
          "indexed": false,
          "internalType": "string",
          "name": "voter_ipfs",
          "type": "string"
        }
      ],
      "name": "VoterCreated",
      "type": "event"
    },
    {
      "inputs": [
        {
          "internalType": "uint256",
          "name": "",
          "type": "uint256"
        }
      ],
      "name": "candidateAddress",
      "outputs": [
        {
          "internalType": "address",
          "name": "",
          "type": "address"
        }
      ],
      "stateMutability": "view",
      "type": "function"
    },
    {
      "inputs": [
        {
          "internalType": "address",
          "name": "",
          "type": "address"
        }
      ],
      "name": "candidates",
      "outputs": [
        {
          "internalType": "uint256",
          "name": "candidateId",
          "type": "uint256"
        },
        {
          "internalType": "string",
          "name": "age",
          "type": "string"
        },
        {
          "internalType": "string",
          "name": "name",
          "type": "string"
        },
        {
          "internalType": "string",
          "name": "image",
          "type": "string"
        },
        {
          "internalType": "uint256",
          "name": "voteCount",
          "type": "uint256"
        },
        {
          "internalType": "address",
          "name": "_address",
          "type": "address"
        },
        {
          "internalType": "string",
          "name": "ipfs",
          "type": "string"
        }
      ],
      "stateMutability": "view",
      "type": "function"
    },
    {
      "inputs": [],
      "name": "getCandidate",
      "outputs": [
        {
          "internalType": "address[]",
          "name": "",
          "type": "address[]"
        }
      ],
      "stateMutability": "view",
      "type": "function"
    },
    {
      "inputs": [],
      "name": "getCandidateLength",
      "outputs": [
        {
          "internalType": "uint256",
          "name": "",
          "type": "uint256"
        }
      ],
      "stateMutability": "view",
      "type": "function"
    },
    {
      "inputs": [
        {
          "internalType": "address",
          "name": "_address",
          "type": "address"
        }
      ],
      "name": "getCandidatedata",
      "outputs": [
        {
          "internalType": "string",
          "name": "",
          "type": "string"
        },
        {
          "internalType": "string",
          "name": "",
          "type": "string"
        },
        {
          "internalType": "uint256",
          "name": "",
          "type": "uint256"
        },
        {
          "internalType": "string",
          "name": "",
          "type": "string"
        },
        {
          "internalType": "uint256",
          "name": "",
          "type": "uint256"
        },
        {
          "internalType": "string",
          "name": "",
          "type": "string"
        },
        {
          "internalType": "address",
          "name": "",
          "type": "address"
        }
      ],
      "stateMutability": "view",
      "type": "function"
    },
    {
      "inputs": [],
      "name": "getVotedVoterList",
      "outputs": [
        {
          "internalType": "address[]",
          "name": "",
          "type": "address[]"
        }
      ],
      "stateMutability": "view",
      "type": "function"
    },
    {
      "inputs": [],
      "name": "getVoterLenght",
      "outputs": [
        {
          "internalType": "uint256",
          "name": "",
          "type": "uint256"
        }
      ],
      "stateMutability": "view",
      "type": "function"
    },
    {
      "inputs": [],
      "name": "getVoterList",
      "outputs": [
        {
          "internalType": "address[]",
          "name": "",
          "type": "address[]"
        }
      ],
      "stateMutability": "view",
      "type": "function"
    },
    {
      "inputs": [
        {
          "internalType": "address",
          "name": "_address",
          "type": "address"
        }
      ],
      "name": "getVoterdata",
      "outputs": [
        {
          "internalType": "uint256",
          "name": "",
          "type": "uint256"
        },
        {
          "internalType": "string",
          "name": "",
          "type": "string"
        },
        {
          "internalType": "string",
          "name": "",
          "type": "string"
        },
        {
          "internalType": "address",
          "name": "",
          "type": "address"
        },
        {
          "internalType": "string",
          "name": "",
          "type": "string"
        },
        {
          "internalType": "uint256",
          "name": "",
          "type": "uint256"
        },
        {
          "internalType": "bool",
          "name": "",
          "type": "bool"
        }
      ],
      "stateMutability": "view",
      "type": "function"
    },
    {
      "inputs": [
        {
          "internalType": "address",
          "name": "_address",
          "type": "address"
        },
        {
          "internalType": "string",
          "name": "_age",
          "type": "string"
        },
        {
          "internalType": "string",
          "name": "_name",
          "type": "string"
        },
        {
          "internalType": "string",
          "name": "_image",
          "type": "string"
        },
        {
          "internalType": "string",
          "name": "_ipfs",
          "type": "string"
        }
      ],
      "name": "setCandidate",
      "outputs": [],
      "stateMutability": "nonpayable",
      "type": "function"
    },
    {
      "inputs": [
        {
          "internalType": "address",
          "name": "_candidateAddress",
          "type": "address"
        },
        {
          "internalType": "uint256",
          "name": "_candidateVoteId",
          "type": "uint256"
        }
      ],
      "name": "vote",
      "outputs": [],
      "stateMutability": "nonpayable",
      "type": "function"
    },
    {
      "inputs": [
        {
          "internalType": "uint256",
          "name": "",
          "type": "uint256"
        }
      ],
      "name": "votedVoters",
      "outputs": [
        {
          "internalType": "address",
          "name": "",
          "type": "address"
        }
      ],
      "stateMutability": "view",
      "type": "function"
    },
    {
      "inputs": [
        {
          "internalType": "address",
          "name": "_address",
          "type": "address"
        },
        {
          "internalType": "string",
          "name": "_name",
          "type": "string"
        },
        {
          "internalType": "string",
          "name": "_image",
          "type": "string"
        },
        {
          "internalType": "string",
          "name": "_ipfs",
          "type": "string"
        }
      ],
      "name": "voterRight",
      "outputs": [],
      "stateMutability": "nonpayable",
      "type": "function"
    },
    {
      "inputs": [
        {
          "internalType": "address",
          "name": "",
          "type": "address"
        }
      ],
      "name": "voters",
      "outputs": [
        {
          "internalType": "uint256",
          "name": "voter_voterId",
          "type": "uint256"
        },
        {
          "internalType": "string",
          "name": "voter_name",
          "type": "string"
        },
        {
          "internalType": "string",
          "name": "voter_image",
          "type": "string"
        },
        {
          "internalType": "address",
          "name": "voter_address",
          "type": "address"
        },
        {
          "internalType": "uint256",
          "name": "voter_allowed",
          "type": "uint256"
        },
        {
          "internalType": "bool",
          "name": "voter_voted",
          "type": "bool"
        },
        {
          "internalType": "uint256",
          "name": "voter_vote",
          "type": "uint256"
        },
        {
          "internalType": "string",
          "name": "voter_ipfs",
          "type": "string"
        }
      ],
      "stateMutability": "view",
      "type": "function"
    },
    {
      "inputs": [
        {
          "internalType": "uint256",
          "name": "",
          "type": "uint256"
        }
      ],
      "name": "votersAddress",
      "outputs": [
        {
          "internalType": "address",
          "name": "",
          "type": "address"
        }
      ],
      "stateMutability": "view",
      "type": "function"
    },
    {
      "inputs": [],
      "name": "votingOrganizer",
      "outputs": [
        {
          "internalType": "address",
          "name": "",
          "type": "address"
        }
      ],
      "stateMutability": "view",
      "type": "function"
    }
  ],
  "bytecode": "0x608060405234801561001057600080fd5b5033600260006101000a81548173ffffffffffffffffffffffffffffffffffffffff021916908373ffffffffffffffffffffffffffffffffffffffff160217905550612800806100616000396000f3fe608060405234801561001057600080fd5b50600436106101005760003560e01c80638ab66a9011610097578063b63c82ca11610066578063b63c82ca146102d0578063c5036fd414610306578063c91ec7121461033c578063f7522a831461035857610100565b80638ab66a90146102275780638e9456851461025d578063a3ec138d1461027b578063b28d92ae146102b257610100565b80635cc48aa7116100d35780635cc48aa71461019f5780635f74bbde146101bd57806370218b85146101d95780637831ffb3146101f757610100565b80630361419e146101055780631de5516b146101215780633a88251a1461013f57806343242daa1461016f575b600080fd5b61011f600480360381019061011a9190611af9565b610376565b005b6101296105f3565b6040516101369190611bcd565b60405180910390f35b61015960048036038101906101549190611c14565b610600565b6040516101669190611c50565b60405180910390f35b61018960048036038101906101849190611c14565b61063f565b6040516101969190611c50565b60405180910390f35b6101a761067e565b6040516101b49190611c50565b60405180910390f35b6101d760048036038101906101d29190611c6b565b6106a4565b005b6101e161086b565b6040516101ee9190611d69565b60405180910390f35b610211600480360381019061020c9190611c14565b6108f9565b60405161021e9190611c50565b60405180910390f35b610241600480360381019061023c9190611d8b565b610938565b6040516102549796959493929190611e37565b60405180910390f35b610265610bba565b6040516102729190611d69565b60405180910390f35b61029560048036038101906102909190611d8b565b610c48565b6040516102a9989796959493929190611edd565b60405180910390f35b6102ba610e55565b6040516102c79190611d69565b60405180910390f35b6102ea60048036038101906102e59190611d8b565b610ee3565b6040516102fd9796959493929190611f70565b60405180910390f35b610320600480360381019061031b9190611d8b565b61132a565b6040516103339796959493929190611ffb565b60405180910390f35b6103566004803603810190610351919061207f565b6116f2565b005b610360611934565b60405161036d9190611bcd565b60405180910390f35b3373ffffffffffffffffffffffffffffffffffffffff16600260009054906101000a900473ffffffffffffffffffffffffffffffffffffffff1673ffffffffffffffffffffffffffffffffffffffff1614610406576040517f08c379a00000000000000000000000000000000000000000000000000000000081526004016103fd906121b6565b60405180910390fd5b60008081548092919061041890612205565b91905055506000805490506000600760008773ffffffffffffffffffffffffffffffffffffffff1673ffffffffffffffffffffffffffffffffffffffff1681526020019081526020016000209050600081600401541461047757600080fd5b60018160040181905550848160010190816104929190612459565b50838160020190816104a49190612459565b50858160030160006101000a81548173ffffffffffffffffffffffffffffffffffffffff021916908373ffffffffffffffffffffffffffffffffffffffff1602179055508181600001819055506103e8816006018190555060008160050160006101000a81548160ff0219169083151502179055508281600701908161052a9190612459565b506006869080600181540180825580915050600190039060005260206000200160009091909190916101000a81548173ffffffffffffffffffffffffffffffffffffffff021916908373ffffffffffffffffffffffffffffffffffffffff160217905550817ff5f39971dd62d9929e3a9feaa6bb77fe7c7da0001babff8a65a7e51ad0201c1986868985600401548660050160009054906101000a900460ff1687600601548a6040516105e3979695949392919061252b565b60405180910390a2505050505050565b6000600680549050905090565b6003818154811061061057600080fd5b906000526020600020016000915054906101000a900473ffffffffffffffffffffffffffffffffffffffff1681565b6006818154811061064f57600080fd5b906000526020600020016000915054906101000a900473ffffffffffffffffffffffffffffffffffffffff1681565b600260009054906101000a900473ffffffffffffffffffffffffffffffffffffffff1681565b6000600760003373ffffffffffffffffffffffffffffffffffffffff1673ffffffffffffffffffffffffffffffffffffffff16815260200190815260200160002090508060050160009054906101000a900460ff1615610739576040517f08c379a0000000000000000000000000000000000000000000000000000000008152600401610730906125fb565b60405180910390fd5b6000816004015403610780576040517f08c379a000000000000000000000000000000000000000000000000000000000815260040161077790612667565b60405180910390fd5b60018160050160006101000a81548160ff0219169083151502179055508181600601819055506005339080600181540180825580915050600190039060005260206000200160009091909190916101000a81548173ffffffffffffffffffffffffffffffffffffffff021916908373ffffffffffffffffffffffffffffffffffffffff1602179055508060040154600460008573ffffffffffffffffffffffffffffffffffffffff1673ffffffffffffffffffffffffffffffffffffffff168152602001908152602001600020600401600082825461085f9190612687565b92505081905550505050565b606060038054806020026020016040519081016040528092919081815260200182805480156108ef57602002820191906000526020600020905b8160009054906101000a900473ffffffffffffffffffffffffffffffffffffffff1673ffffffffffffffffffffffffffffffffffffffff16815260200190600101908083116108a5575b5050505050905090565b6005818154811061090957600080fd5b906000526020600020016000915054906101000a900473ffffffffffffffffffffffffffffffffffffffff1681565b60046020528060005260406000206000915090508060000154908060010180546109619061227c565b80601f016020809104026020016040519081016040528092919081815260200182805461098d9061227c565b80156109da5780601f106109af576101008083540402835291602001916109da565b820191906000526020600020905b8154815290600101906020018083116109bd57829003601f168201915b5050505050908060020180546109ef9061227c565b80601f0160208091040260200160405190810160405280929190818152602001828054610a1b9061227c565b8015610a685780601f10610a3d57610100808354040283529160200191610a68565b820191906000526020600020905b815481529060010190602001808311610a4b57829003601f168201915b505050505090806003018054610a7d9061227c565b80601f0160208091040260200160405190810160405280929190818152602001828054610aa99061227c565b8015610af65780601f10610acb57610100808354040283529160200191610af6565b820191906000526020600020905b815481529060010190602001808311610ad957829003601f168201915b5050505050908060040154908060050160009054906101000a900473ffffffffffffffffffffffffffffffffffffffff1690806006018054610b379061227c565b80601f0160208091040260200160405190810160405280929190818152602001828054610b639061227c565b8015610bb05780601f10610b8557610100808354040283529160200191610bb0565b820191906000526020600020905b815481529060010190602001808311610b9357829003601f168201915b5050505050905087565b60606005805480602002602001604051908101604052809291908181526020018280548015610c3e57602002820191906000526020600020905b8160009054906101000a900473ffffffffffffffffffffffffffffffffffffffff1673ffffffffffffffffffffffffffffffffffffffff1681526020019060010190808311610bf4575b5050505050905090565b6007602052806000526040600020600091509050806000015490806001018054610c719061227c565b80601f0160208091040260200160405190810160405280929190818152602001828054610c9d9061227c565b8015610cea5780601f10610cbf57610100808354040283529160200191610cea565b820191906000526020600020905b815481529060010190602001808311610ccd57829003601f168201915b505050505090806002018054610cff9061227c565b80601f0160208091040260200160405190810160405280929190818152602001828054610d2b9061227c565b8015610d785780601f10610d4d57610100808354040283529160200191610d78565b820191906000526020600020905b815481529060010190602001808311610d5b57829003601f168201915b5050505050908060030160009054906101000a900473ffffffffffffffffffffffffffffffffffffffff16908060040154908060050160009054906101000a900460ff1690806006015490806007018054610dd29061227c565b80601f0160208091040260200160405190810160405280929190818152602001828054610dfe9061227c565b8015610e4b5780601f10610e2057610100808354040283529160200191610e4b565b820191906000526020600020905b815481529060010190602001808311610e2e57829003601f168201915b5050505050905088565b60606006805480602002602001604051908101604052809291908181526020018280548015610ed957602002820191906000526020600020905b8160009054906101000a900473ffffffffffffffffffffffffffffffffffffffff1673ffffffffffffffffffffffffffffffffffffffff1681526020019060010190808311610e8f575b5050505050905090565b60608060006060600060606000600460008973ffffffffffffffffffffffffffffffffffffffff1673ffffffffffffffffffffffffffffffffffffffff168152602001908152602001600020600101600460008a73ffffffffffffffffffffffffffffffffffffffff1673ffffffffffffffffffffffffffffffffffffffff168152602001908152602001600020600201600460008b73ffffffffffffffffffffffffffffffffffffffff1673ffffffffffffffffffffffffffffffffffffffff16815260200190815260200160002060000154600460008c73ffffffffffffffffffffffffffffffffffffffff1673ffffffffffffffffffffffffffffffffffffffff168152602001908152602001600020600301600460008d73ffffffffffffffffffffffffffffffffffffffff1673ffffffffffffffffffffffffffffffffffffffff16815260200190815260200160002060040154600460008e73ffffffffffffffffffffffffffffffffffffffff1673ffffffffffffffffffffffffffffffffffffffff168152602001908152602001600020600601600460008f73ffffffffffffffffffffffffffffffffffffffff1673ffffffffffffffffffffffffffffffffffffffff16815260200190815260200160002060050160009054906101000a900473ffffffffffffffffffffffffffffffffffffffff168680546110ed9061227c565b80601f01602080910402602001604051908101604052809291908181526020018280546111199061227c565b80156111665780601f1061113b57610100808354040283529160200191611166565b820191906000526020600020905b81548152906001019060200180831161114957829003601f168201915b505050505096508580546111799061227c565b80601f01602080910402602001604051908101604052809291908181526020018280546111a59061227c565b80156111f25780601f106111c7576101008083540402835291602001916111f2565b820191906000526020600020905b8154815290600101906020018083116111d557829003601f168201915b505050505095508380546112059061227c565b80601f01602080910402602001604051908101604052809291908181526020018280546112319061227c565b801561127e5780601f106112535761010080835404028352916020019161127e565b820191906000526020600020905b81548152906001019060200180831161126157829003601f168201915b505050505093508180546112919061227c565b80601f01602080910402602001604051908101604052809291908181526020018280546112bd9061227c565b801561130a5780601f106112df5761010080835404028352916020019161130a565b820191906000526020600020905b8154815290600101906020018083116112ed57829003601f168201915b505050505091509650965096509650965096509650919395979092949650565b600060608060006060600080600760008973ffffffffffffffffffffffffffffffffffffffff1673ffffffffffffffffffffffffffffffffffffffff16815260200190815260200160002060000154600760008a73ffffffffffffffffffffffffffffffffffffffff1673ffffffffffffffffffffffffffffffffffffffff168152602001908152602001600020600101600760008b73ffffffffffffffffffffffffffffffffffffffff1673ffffffffffffffffffffffffffffffffffffffff168152602001908152602001600020600201600760008c73ffffffffffffffffffffffffffffffffffffffff1673ffffffffffffffffffffffffffffffffffffffff16815260200190815260200160002060030160009054906101000a900473ffffffffffffffffffffffffffffffffffffffff16600760008d73ffffffffffffffffffffffffffffffffffffffff1673ffffffffffffffffffffffffffffffffffffffff168152602001908152602001600020600701600760008e73ffffffffffffffffffffffffffffffffffffffff1673ffffffffffffffffffffffffffffffffffffffff16815260200190815260200160002060040154600760008f73ffffffffffffffffffffffffffffffffffffffff1673ffffffffffffffffffffffffffffffffffffffff16815260200190815260200160002060050160009054906101000a900460ff168580546115419061227c565b80601f016020809104026020016040519081016040528092919081815260200182805461156d9061227c565b80156115ba5780601f1061158f576101008083540402835291602001916115ba565b820191906000526020600020905b81548152906001019060200180831161159d57829003601f168201915b505050505095508480546115cd9061227c565b80601f01602080910402602001604051908101604052809291908181526020018280546115f99061227c565b80156116465780601f1061161b57610100808354040283529160200191611646565b820191906000526020600020905b81548152906001019060200180831161162957829003601f168201915b505050505094508280546116599061227c565b80601f01602080910402602001604051908101604052809291908181526020018280546116859061227c565b80156116d25780601f106116a7576101008083540402835291602001916116d2565b820191906000526020600020905b8154815290600101906020018083116116b557829003601f168201915b505050505092509650965096509650965096509650919395979092949650565b3373ffffffffffffffffffffffffffffffffffffffff16600260009054906101000a900473ffffffffffffffffffffffffffffffffffffffff1673ffffffffffffffffffffffffffffffffffffffff1614611782576040517f08c379a00000000000000000000000000000000000000000000000000000000081526004016117799061272d565b60405180910390fd5b6001600081548092919061179590612205565b9190505550600060015490506000600460008873ffffffffffffffffffffffffffffffffffffffff1673ffffffffffffffffffffffffffffffffffffffff1681526020019081526020016000209050858160010190816117f59190612459565b50848160020190816118079190612459565b50818160000181905550838160030190816118229190612459565b5060008160040181905550868160050160006101000a81548173ffffffffffffffffffffffffffffffffffffffff021916908373ffffffffffffffffffffffffffffffffffffffff160217905550828160060190816118819190612459565b506003879080600181540180825580915050600190039060005260206000200160009091909190916101000a81548173ffffffffffffffffffffffffffffffffffffffff021916908373ffffffffffffffffffffffffffffffffffffffff160217905550817fd297f12b256bb8485a6013fb5e302017018123e99a0ebb20756c09e1707b4b9087878785600401548c896040516119239695949392919061274d565b60405180910390a250505050505050565b6000600380549050905090565b6000604051905090565b600080fd5b600080fd5b600073ffffffffffffffffffffffffffffffffffffffff82169050919050565b600061198082611955565b9050919050565b61199081611975565b811461199b57600080fd5b50565b6000813590506119ad81611987565b92915050565b600080fd5b600080fd5b6000601f19601f8301169050919050565b7f4e487b7100000000000000000000000000000000000000000000000000000000600052604160045260246000fd5b611a06826119bd565b810181811067ffffffffffffffff82111715611a2557611a246119ce565b5b80604052505050565b6000611a38611941565b9050611a4482826119fd565b919050565b600067ffffffffffffffff821115611a6457611a636119ce565b5b611a6d826119bd565b9050602081019050919050565b82818337600083830152505050565b6000611a9c611a9784611a49565b611a2e565b905082815260208101848484011115611ab857611ab76119b8565b5b611ac3848285611a7a565b509392505050565b600082601f830112611ae057611adf6119b3565b5b8135611af0848260208601611a89565b91505092915050565b60008060008060808587031215611b1357611b1261194b565b5b6000611b218782880161199e565b945050602085013567ffffffffffffffff811115611b4257611b41611950565b5b611b4e87828801611acb565b935050604085013567ffffffffffffffff811115611b6f57611b6e611950565b5b611b7b87828801611acb565b925050606085013567ffffffffffffffff811115611b9c57611b9b611950565b5b611ba887828801611acb565b91505092959194509250565b6000819050919050565b611bc781611bb4565b82525050565b6000602082019050611be26000830184611bbe565b92915050565b611bf181611bb4565b8114611bfc57600080fd5b50565b600081359050611c0e81611be8565b92915050565b600060208284031215611c2a57611c2961194b565b5b6000611c3884828501611bff565b91505092915050565b611c4a81611975565b82525050565b6000602082019050611c656000830184611c41565b92915050565b60008060408385031215611c8257611c8161194b565b5b6000611c908582860161199e565b9250506020611ca185828601611bff565b9150509250929050565b600081519050919050565b600082825260208201905092915050565b6000819050602082019050919050565b611ce081611975565b82525050565b6000611cf28383611cd7565b60208301905092915050565b6000602082019050919050565b6000611d1682611cab565b611d208185611cb6565b9350611d2b83611cc7565b8060005b83811015611d5c578151611d438882611ce6565b9750611d4e83611cfe565b925050600181019050611d2f565b5085935050505092915050565b60006020820190508181036000830152611d838184611d0b565b905092915050565b600060208284031215611da157611da061194b565b5b6000611daf8482850161199e565b91505092915050565b600081519050919050565b600082825260208201905092915050565b60005b83811015611df2578082015181840152602081019050611dd7565b60008484015250505050565b6000611e0982611db8565b611e138185611dc3565b9350611e23818560208601611dd4565b611e2c816119bd565b840191505092915050565b600060e082019050611e4c600083018a611bbe565b8181036020830152611e5e8189611dfe565b90508181036040830152611e728188611dfe565b90508181036060830152611e868187611dfe565b9050611e956080830186611bbe565b611ea260a0830185611c41565b81810360c0830152611eb48184611dfe565b905098975050505050505050565b60008115159050919050565b611ed781611ec2565b82525050565b600061010082019050611ef3600083018b611bbe565b8181036020830152611f05818a611dfe565b90508181036040830152611f198189611dfe565b9050611f286060830188611c41565b611f356080830187611bbe565b611f4260a0830186611ece565b611f4f60c0830185611bbe565b81810360e0830152611f618184611dfe565b90509998505050505050505050565b600060e0820190508181036000830152611f8a818a611dfe565b90508181036020830152611f9e8189611dfe565b9050611fad6040830188611bbe565b8181036060830152611fbf8187611dfe565b9050611fce6080830186611bbe565b81810360a0830152611fe08185611dfe565b9050611fef60c0830184611c41565b98975050505050505050565b600060e082019050612010600083018a611bbe565b81810360208301526120228189611dfe565b905081810360408301526120368188611dfe565b90506120456060830187611c41565b81810360808301526120578186611dfe565b905061206660a0830185611bbe565b61207360c0830184611ece565b98975050505050505050565b600080600080600060a0868803121561209b5761209a61194b565b5b60006120a98882890161199e565b955050602086013567ffffffffffffffff8111156120ca576120c9611950565b5b6120d688828901611acb565b945050604086013567ffffffffffffffff8111156120f7576120f6611950565b5b61210388828901611acb565b935050606086013567ffffffffffffffff81111561212457612123611950565b5b61213088828901611acb565b925050608086013567ffffffffffffffff81111561215157612150611950565b5b61215d88828901611acb565b9150509295509295909350565b7f4f6e6c79204f7267616e697a65722063616e2063726561746520766f74657200600082015250565b60006121a0601f83611dc3565b91506121ab8261216a565b602082019050919050565b600060208201905081810360008301526121cf81612193565b9050919050565b7f4e487b7100000000000000000000000000000000000000000000000000000000600052601160045260246000fd5b600061221082611bb4565b91507fffffffffffffffffffffffffffffffffffffffffffffffffffffffffffffffff8203612242576122416121d6565b5b600182019050919050565b7f4e487b7100000000000000000000000000000000000000000000000000000000600052602260045260246000fd5b6000600282049050600182168061229457607f821691505b6020821081036122a7576122a661224d565b5b50919050565b60008190508160005260206000209050919050565b60006020601f8301049050919050565b600082821b905092915050565b60006008830261230f7fffffffffffffffffffffffffffffffffffffffffffffffffffffffffffffffff826122d2565b61231986836122d2565b95508019841693508086168417925050509392505050565b6000819050919050565b600061235661235161234c84611bb4565b612331565b611bb4565b9050919050565b6000819050919050565b6123708361233b565b61238461237c8261235d565b8484546122df565b825550505050565b600090565b61239961238c565b6123a4818484612367565b505050565b5b818110156123c8576123bd600082612391565b6001810190506123aa565b5050565b601f82111561240d576123de816122ad565b6123e7846122c2565b810160208510156123f6578190505b61240a612402856122c2565b8301826123a9565b50505b505050565b600082821c905092915050565b600061243060001984600802612412565b1980831691505092915050565b6000612449838361241f565b9150826002028217905092915050565b61246282611db8565b67ffffffffffffffff81111561247b5761247a6119ce565b5b612485825461227c565b6124908282856123cc565b600060209050601f8311600181146124c357600084156124b1578287015190505b6124bb858261243d565b865550612523565b601f1984166124d1866122ad565b60005b828110156124f9578489015182556001820191506020850194506020810190506124d4565b868310156125165784890151612512601f89168261241f565b8355505b6001600288020188555050505b505050505050565b600060e0820190508181036000830152612545818a611dfe565b905081810360208301526125598189611dfe565b90506125686040830188611c41565b6125756060830187611bbe565b6125826080830186611ece565b61258f60a0830185611bbe565b81810360c08301526125a18184611dfe565b905098975050505050505050565b7f596f75206861766520616c726561647920766f74656400000000000000000000600082015250565b60006125e5601683611dc3565b91506125f0826125af565b602082019050919050565b60006020820190508181036000830152612614816125d8565b9050919050565b7f596f752068617665206e6f20726967687420746f20766f746500000000000000600082015250565b6000612651601983611dc3565b915061265c8261261b565b602082019050919050565b6000602082019050818103600083015261268081612644565b9050919050565b600061269282611bb4565b915061269d83611bb4565b92508282019050808211156126b5576126b46121d6565b5b92915050565b7f4f6e6c7920456c656374696f6e204f7267616e697365722043616e207265676960008201527f73746572207468652063616e6469646174657300000000000000000000000000602082015250565b6000612717603383611dc3565b9150612722826126bb565b604082019050919050565b600060208201905081810360008301526127468161270a565b9050919050565b600060c08201905081810360008301526127678189611dfe565b9050818103602083015261277b8188611dfe565b9050818103604083015261278f8187611dfe565b905061279e6060830186611bbe565b6127ab6080830185611c41565b81810360a08301526127bd8184611dfe565b905097965050505050505056fea26469706673582212202b50af8d0f6c73524010b8a61a8d294cf6dff581be9040676081beb14fff27e464736f6c63430008130033",
  "linkReferences": {},
  "deployedLinkReferences": {}
}